{
  "contractName": "Loan",
  "abi": [
    {
      "inputs": [
        {
          "internalType": "uint256",
          "name": "_interest",
          "type": "uint256"
        },
        {
          "internalType": "uint256",
          "name": "_duration",
          "type": "uint256"
        },
        {
          "internalType": "address payable",
          "name": "_borrower",
          "type": "address"
        },
        {
          "internalType": "address payable",
          "name": "_lender",
          "type": "address"
        }
      ],
      "stateMutability": "payable",
      "type": "constructor",
      "payable": true
    },
    {
      "inputs": [],
      "name": "amount",
      "outputs": [
        {
          "internalType": "uint256",
          "name": "",
          "type": "uint256"
        }
      ],
      "stateMutability": "view",
      "type": "function",
      "constant": true
    },
    {
      "inputs": [],
      "name": "borrower",
      "outputs": [
        {
          "internalType": "address payable",
          "name": "",
          "type": "address"
        }
      ],
      "stateMutability": "view",
      "type": "function",
      "constant": true
    },
    {
      "inputs": [],
      "name": "end",
      "outputs": [
        {
          "internalType": "uint256",
          "name": "",
          "type": "uint256"
        }
      ],
      "stateMutability": "view",
      "type": "function",
      "constant": true
    },
    {
      "inputs": [],
      "name": "interest",
      "outputs": [
        {
          "internalType": "uint256",
          "name": "",
          "type": "uint256"
        }
      ],
      "stateMutability": "view",
      "type": "function",
      "constant": true
    },
    {
      "inputs": [],
      "name": "lender",
      "outputs": [
        {
          "internalType": "address payable",
          "name": "",
          "type": "address"
        }
      ],
      "stateMutability": "view",
      "type": "function",
      "constant": true
    },
    {
      "inputs": [],
      "name": "state",
      "outputs": [
        {
          "internalType": "enum Loan.State",
          "name": "",
          "type": "uint8"
        }
      ],
      "stateMutability": "view",
      "type": "function",
      "constant": true
    },
    {
      "inputs": [],
      "name": "fund",
      "outputs": [],
      "stateMutability": "payable",
      "type": "function",
      "payable": true
    },
    {
      "inputs": [],
      "name": "reimburse",
      "outputs": [],
      "stateMutability": "payable",
      "type": "function",
      "payable": true
    }
  ],
  "bytecode": "0x608060408190526000805460ff1916905561085b3881900390819083398101604081905261002c91610092565b34600155600284905561003f83426100d7565b600355600480546001600160a01b039384166001600160a01b03199182161790915560058054929093169116179055506100fb9050565b80516001600160a01b038116811461008d57600080fd5b919050565b600080600080608085870312156100a7578384fd5b84519350602085015192506100be60408601610076565b91506100cc60608601610076565b905092959194509250565b600082198211156100f657634e487b7160e01b81526011600452602481fd5b500190565b6107518061010a6000396000f3fe60806040526004361061007b5760003560e01c8063c19d93fb1161004e578063c19d93fb146100ec578063c392f7661461010e578063d3927c1514610123578063efbe1c1c1461012b5761007b565b80637df1f1b914610080578063aa8c217c146100ab578063b60d4288146100cd578063bcead63e146100d7575b600080fd5b34801561008c57600080fd5b50610095610140565b6040516100a29190610480565b60405180910390f35b3480156100b757600080fd5b506100c061014f565b6040516100a291906106ee565b6100d5610155565b005b3480156100e357600080fd5b506100956101f2565b3480156100f857600080fd5b50610101610201565b6040516100a29190610494565b34801561011a57600080fd5b506100c061020a565b6100d5610210565b34801561013757600080fd5b506100c06102bc565b6004546001600160a01b031681565b60015481565b6005546001600160a01b031633146101885760405162461bcd60e51b815260040161017f9061066c565b60405180910390fd5b60015447146101a95760405162461bcd60e51b815260040161017f9061050c565b6101b360016102c2565b6004546001546040516001600160a01b039092169181156108fc0291906000818181858888f193505050501580156101ef573d6000803e3d6000fd5b50565b6005546001600160a01b031681565b60005460ff1681565b60025481565b6004546001600160a01b0316331461023a5760405162461bcd60e51b815260040161017f90610635565b60025460015461024a91906106f7565b34146102685760405162461bcd60e51b815260040161017f9061069a565b61027260026102c2565b6005546002546001546001600160a01b03909216916108fc91610294916106f7565b6040518115909202916000818181858888f193505050501580156101ef573d6000803e3d6000fd5b60035481565b60008160028111156102e457634e487b7160e01b600052602160045260246000fd5b14156103025760405162461bcd60e51b815260040161017f906105ce565b60005460ff16600281111561032757634e487b7160e01b600052602160045260246000fd5b81600281111561034757634e487b7160e01b600052602160045260246000fd5b14156103655760405162461bcd60e51b815260040161017f9061058c565b600181600281111561038757634e487b7160e01b600052602160045260246000fd5b14156103e2576000805460ff1660028111156103b357634e487b7160e01b600052602160045260246000fd5b146103d05760405162461bcd60e51b815260040161017f906104bc565b6000805460ff191660011790556101ef565b600281600281111561040457634e487b7160e01b600052602160045260246000fd5b14156101ef57600160005460ff16600281111561043157634e487b7160e01b600052602160045260246000fd5b1461044e5760405162461bcd60e51b815260040161017f90610543565b6003544210156104705760405162461bcd60e51b815260040161017f90610605565b506000805460ff19166002179055565b6001600160a01b0391909116815260200190565b60208101600383106104b657634e487b7160e01b600052602160045260246000fd5b91905290565b60208082526030908201527f63616e206f6e6c79207472616e736974696f6e20746f2061637469766520667260408201526f6f6d2070656e64696e6720737461746560801b606082015260800190565b6020808252601e908201527f63616e206f6e6c79206c656e642074686520657861637420616d6f756e740000604082015260600190565b60208082526029908201527f63616e206f6e6c79207472616e736974696f6e20746f20636c6f7365642066726040820152686f6d2061637469766560b81b606082015260800190565b60208082526022908201527f63616e6e6f74207472616e736974696f6e20746f2063757272656e7420737461604082015261746560f01b606082015260800190565b6020808252601f908201527f63616e6e6f7420676f206261636b20746f2050454e44494e4720737461746500604082015260600190565b6020808252601690820152751b1bd85b881a185cdb9d081b585d1d5c9959081e595d60521b604082015260600190565b6020808252601b908201527f6f6e6c7920626f72726f7765722063616e207265696d62757273650000000000604082015260600190565b6020808252601490820152731bdb9b1e481b195b99195c8818d85b881b195b9960621b604082015260600190565b60208082526034908201527f626f72726f776572206e65656420746f207265696d62757273652065786163746040820152731b1e48185b5bdd5b9d080ac81a5b9d195c995cdd60621b606082015260800190565b90815260200190565b6000821982111561071657634e487b7160e01b81526011600452602481fd5b50019056fea264697066735822122080bb56ad311ca521d496e90001ec24839c75b3142ae05fd280a96dd6b762ca3364736f6c63430008000033",
  "immutableReferences": {},
  "source": "// SPDX-License-Identifier: MIT \r\npragma solidity ^0.8.0;\r\n\r\ncontract Loan {\r\n    enum State {\r\n        PENDING,\r\n        ACTIVE,\r\n        CLOSED\r\n    }\r\n\r\n    State public state = State.PENDING;\r\n    uint public amount;\r\n    uint public interest;\r\n    uint public end;\r\n    address payable public borrower;\r\n    address payable public lender;\r\n\r\n    constructor (\r\n        uint _interest,\r\n        uint _duration,\r\n        address payable _borrower,\r\n        address payable _lender\r\n    ) payable {\r\n      amount = msg.value;\r\n      interest = _interest;\r\n      end = block.timestamp + _duration;\r\n      borrower = _borrower;\r\n      lender = _lender;\r\n    }\r\n\r\n    function fund() payable external {\r\n        require(msg.sender == lender, 'only lender can lend');\r\n        require(address(this).balance == amount, 'can only lend the exact amount');\r\n        _transitionTo(State.ACTIVE);\r\n        borrower.transfer(amount);\r\n    }\r\n\r\n    function reimburse() payable external {\r\n        require(msg.sender == borrower, 'only borrower can reimburse');\r\n        require(msg.value == amount + interest, 'borrower need to reimburse exactly amount + interest');\r\n        _transitionTo(State.CLOSED);\r\n        lender.transfer(amount + interest);\r\n    }\r\n\r\n    function _transitionTo(State to) internal {\r\n        require(to != State.PENDING, 'cannot go back to PENDING state');\r\n        require(to != state, 'cannot transition to current state');\r\n        if(to == State.ACTIVE) {\r\n            require(state == State.PENDING, 'can only transition to active from pending state');\r\n            state = State.ACTIVE;\r\n        } else if(to == State.CLOSED) {\r\n            require(state == State.ACTIVE, 'can only transition to closed from active');\r\n            require(block.timestamp >= end, 'loan hasnt matured yet');\r\n            state = State.CLOSED;\r\n        }\r\n    }\r\n}",
  "sourcePath": "C:\\Users\\cassi\\Documents\\DApps\\Loan\\contracts\\Loan.sol",
  "compiler": {
    "name": "solc",
    "version": "0.8.0+commit.c7dfd78e.Emscripten.clang"
  },
  "schemaVersion": "3.4.16",
  "updatedAt": "2023-11-20T14:20:59.300Z",
  "networkType": "ethereum",
  "devdoc": {
    "kind": "dev",
    "methods": {},
    "version": 1
  },
  "userdoc": {
    "kind": "user",
    "methods": {},
    "version": 1
  }
}